:100000000080001023010000F500000035720000A0
:10001000F7000000F9000000FB000000C808FFEF37
:10002000000000000000000000000000AD01000022
:10003000FD00000000000000510200008D020000E1
:10004000FF000000492B0000FF000000FF0000003F
:10005000FF000000252B0000FF000000312B0000F6
:100060003D2B0000FF000000FF000000FF0000002B
:10007000FF000000FF000000FF000000FF00000084
:10008000FF000000FF000000FF000000FF00000074
:10009000FF000000E94E0000FF000000FF0000002C
:1000A000FF000000FF000000FF000000FF00000054
:1000B000FF000000FF000000FF000000FF00000044
:1000C000FF000000FF000000FF000000D8AC0000AF
:1000D00000000010583F0000D8AC000000C007200E
:1000E00000000000583F00101C3A000000C007202C
:1000F00000000000FEE7FEE7FEE7FEE7FEE7FEE7A2
:1001000010B50023934203D21C585C500433F9E726
:1001100010BD00238B4203D200221A500433F9E7AA
:10012000704710B50C4C0D4B9C4207D294E803006D
:100130000C3454F8042CFFF7E3FFF4E7084B9C421F
:1001400005D294E80300FFF7E4FF0834F6E706F071
:10015000F5FF00F00BF8FEE7CC000000E400000023
:10016000F4000000FEE7FEE7FEE7FEE708B505F055
:10017000B9F9002008BD00BF034A044B1A600722EA
:10018000043B1A60704700BF9F86010014E000E046
:100190004FF0807340F8043C40F8081C002340F8FE
:1001A0000C3C40F8202C4038704700BF064B1968C3
:1001B0000868B0E8F00F80F309884FF0000080F382
:1001C00011884EF00D0E704720680010034800683B
:1001D000006880F3088862B600DF00BF08ED00E029
:1001E00010B5094B1A6842F478021A601A6842F096
:1001F00078421A60FFF7C0FF0024044B1C60FFF731
:10020000E5FF204610BD00BF20ED00E0000000101B
:100210004FF08052014B1A60704700BF04ED00E0C0
:100220004FF0280080F31188024B1A6801321A60DF
:10023000704700BF00000010044A1368013B1360C0
:100240001BB94FF0000080F31188704700000010C8
:10025000EFF309800C4B1A6820E9F00F10602DE9CC
:1002600008404FF0280080F3118801F0E5FE4FF0C0
:10027000000080F31188BDE8084019680868B0E8FC
:10028000F00F80F3098870472068001008B54FF020
:100290008052064B1A604FF0280080F3118801F05D
:1002A00037FD4FF0000080F3118808BD04ED00E039
:1002B00038B5044600F0DEFD094B1B687BB9084BDE
:1002C0001C60084D286800F529500830214650224E
:1002D00008F004FC2B6803F5295301221A6038BD8D
:1002E0005C3F00100400001008B5084B1B68D8697B
:1002F000B0F57A7F04D30648FFF7DAFF002008BD87
:1003000003EB800000F52A501C3008BD04000010EB
:100310009C97000008B5042913D890B10B4B1B68BB
:100320005A1892F8602082420BD301F13C0233F854
:100330001220194491F87030013800FB032080B27C
:1003400008BD0348FFF7B4FF002008BD04000010FB
:10035000C497000010B54C4A32F910304B490B607D
:100360001A4492F8282042B9474A02EB40014989D1
:10037000591A01311A4482F82810434A134493F859
:100380002810434B197032F8103002EB40021CB2B7
:10039000B2F91420944221DD042818D8DFE800F0D7
:1003A000130B0F0307003B48FFF782FF12E03A48A8
:1003B000FFF77EFF0EE03948FFF77AFF0AE0384882
:1003C000FFF776FF06E03748FFF772FF02E0364896
:1003D000FFF76EFF00222E4B1A7051E001339BB2E3
:1003E000294A22F810301BB202EB4004B4F90A404B
:1003F0001B1B02EB4002B2F91E209A4204DADBB268
:10040000214A02EB4002D383032839D8DFE800F009
:10041000020F1D2BFF31CB1001F00701012202FA60
:1004200001F1224AD05C20EA0101D15428E001F216
:100430000311CB1001F00701012202FA01F11B4A5E
:10044000D05C20EA0101D1541AE001F20711CB106F
:1004500001F00701012202FA01F1144AD05C20EAFE
:100460000101D1540CE001F20B11CB1001F0070196
:10047000012202FA01F10D4AD05C20EA0101D154B7
:10048000034B187810BD00BF503A0010643F0010B5
:100490006F3F0010049800003C9800007498000022
:1004A000B8980000F498000030990000106A00101D
:1004B00070B5044616460D4619B91F48FFF7F8FEF9
:1004C00070BD042802D91D48FFF7F2FE1C4B1B68C3
:1004D000234493F86030AB421AD2042C2BD8DFE8C7
:1004E00004F0130B0F0307001648FFF7E1FE70BD81
:1004F0001548FFF7DDFE70BD1448FFF7D9FE70BD4B
:100500001348FFF7D5FE70BD1248FFF7D1FE70BD4E
:1005100028462146FFF7FEFE0F4B18800F4B1B6845
:100520004BB9074B1B68184423448430314693F879
:10053000682008F0D3FA70BDA0990000CC990000A3
:1005400004000010049800003C980000749800001B
:10055000B8980000F49800006C3F00105C3F001059
:100560002DE9F84307460024DFF8488042F6982634
:10057000A1461BE0D8F80030DA69224491005818EF
:100580003044057905F16700C0B20E280DD86835F2
:10059000EDB22A449869824207D2314458186A1C45
:1005A00004304946920008F0C5F90134A742E1D869
:1005B000BDE8F8830400001008B50A4B1B681A6BED
:1005C0007AB15A6901325A61DA690132DA61B2F5F7
:1005D0007A7F03D301221A620022DA610120FFF739
:1005E000BFFF08BD0400001030B583B005460023EE
:1005F0000193334B1B685B6A63B901F05FFE48B13E
:100600002F4B1A682F4B19684FF47A7301FB033391
:100610009B08536201A800F09DFB019B2A4A1468C5
:10062000A34204D2264A1268526A13440193019AE3
:10063000141B254B1A60224B1B68596AD9B18C4296
:100640000AD9B4FBF1F2D86A1044D86201FB124116
:10065000986A0844986202E09A6A22449A62184BA7
:100660001B68996A5A6A914206D3D86A0130D862E7
:100670008A1A9A6200E09A62A5421CD2FFF734FE01
:10068000C8B14FF6FF72954206D1A9220270220C22
:100690004280002242700CE0FF2D07D1A822027098
:1006A000C4F30F224280220E427002E00748FFF797
:1006B000FFFDFFF781FF04EA050003B030BD00BF76
:1006C0000400001014E000E0583F0010F89900000A
:1006D0002DE9F84F8346924699461B4B1B6801F55E
:1006E000A6511C3103EB41039C88174F5FFA89F830
:1006F00025E03B6825461A1992F8AE22424514D1EE
:100700001A1992F8AF22B2EB192F0ED1221D02EB6B
:100710000A01194491F8AC1239B9981800F52B70F8
:100720005946524608F080F958B13E68731993F85B
:10073000AC32354495F8AD4203EB0424A4B2002C4E
:10074000D7D12046BDE8F88F04000010F8B58446E4
:1007500016461D4C2468D4F8A85205EB020E0EF183
:10076000040E42F20F77BE4504D91848FFF7A0FDEA
:100770000020F8BD01F5A6521C325700E2199288FC
:10078000611981F8AC22120A81F8AD2281F8AE32EB
:100790001B0A81F8AF3201F52C706146324608F031
:1007A0009DF9094B1B68D3F8A8127018021D1A4452
:1007B000002482F8AC421F44B9800530C3F8A80277
:1007C000801B053880B2F8BD040000101C9A0000A0
:1007D00030B4034628B9044609E0184401342B46D6
:1007E00001E0002004465D1C1B78002BF5D1054B71
:1007F000184003D5013860F03F00013008701470D4
:1008000030BC70473F000080F8B507460E46144CD8
:1008100000222270134D2A7029462246FFF7D8FF86
:10082000FFF7FEFC104A136801331360384629783D
:1008300022783346FFF74CFF0C4B188038B9384606
:10084000297822783346FFF781FF084B1880064B42
:100850001A68013A1A60FFF7EFFC044B1888F8BDDC
:10086000683F00106E3F0010603F00106A3F0010AC
:10087000032832D8DFE800F0020D1925FF31CB083C
:10088000174AD05C01F00701012303FA01F1084087
:10089000704701F20311CB08114AD05C01F0070147
:1008A000012303FA01F10840704701F20711CB0858
:1008B0000B4AD05C01F00701012303FA01F1084063
:1008C000704701F20B11CB08054AD05C01F007011B
:1008D000012303FA01F1084070470020704700BF70
:1008E000106A001038B505460C46814210D9FFF752
:1008F000FBFC50B10122027024EA0502C2F3072179
:100900004170120C4280FFF757FE04EA050038BD23
:10091000084638BD38B5044600F20B13DA100E490C
:100920008A5C03F0070342FA03F313F0010F11D1BD
:100930004FF6FF70FFF758FE0546084B1B681B6B10
:1009400043B1FFF7D1FC28B1022202704580447008
:10095000FFF732FE38BD00BF106A0010040000101F
:10096000F8B504460E461546334B1B78002B62D073
:10097000324A1268126B002A5DD0314A12781AB9D5
:1009800030490978002956D14ABB5A1ED1102E4849
:10099000405C02F0070240FA02F717F0010F1ED088
:1009A000012707FA02F220EA0200274F785418467E
:1009B0000321FFF7AFFC214F3B6893F86B201044F5
:1009C000034483F886401C4B18780321FFF7A2FCF0
:1009D0003B6893F86B201044034483F887503046FB
:1009E0002946FFF745FF30BBE308184AD25C04F004
:1009F000070342FA03F313F0010F1CD1FFF710FCB9
:100A0000134B1A6801321A604FF6FF70FFF7ECFDC6
:100A100006460A4B1B681B6B3BB1FFF765FC20B118
:100A2000468004704570FFF7C7FD094B1A68013A0C
:100A30001A60FFF701FCF8BD723F001004000010BF
:100A4000733F0010713F0010346A0010106A0010EC
:100A5000603F0010F8B5054616461F461D4C246839
:100A6000246B002C35D01C4B1A78002A31D01B4B3C
:100A70001B7813B11A4B1B785BB308463146FFF75E
:100A8000F7FE30BBEB08174AD25C05F0070342FAC9
:100A900003F313F0010F1CD1FFF7C2FB124B1A68CE
:100AA00001321A60FF20FFF79FFDC4B2094B1B689B
:100AB0001B6B43B1FFF718FC28B1C470057046707A
:100AC0008770FFF779FD084B1A68013A1A60FFF743
:100AD000B3FBF8BD04000010723F0010713F00101E
:100AE000733F0010106A0010603F001070B504469C
:100AF0000D46204B1B681B6B002B3AD01E4B1B78FE
:100B0000002B36D01D4B1B781BB11D4B1B78002BC7
:100B10002FD0E3081B4AD25C04F0070342FA03F328
:100B200013F0010F25D1FFF77BFB174B1A68013239
:100B30001A60FF20FFF758FDC6B20E4B1B681B6BF7
:100B40008BB14FF6FF702946FFF7CCFE85B2094BFB
:100B50001B681B6B3BB1FFF7C7FB20B146700470ED
:100B60004580FFF729FD084B1A68013A1A60FFF724
:100B700063FB70BD04000010723F0010713F001055
:100B8000733F0010106A0010603F001038B5044633
:100B9000154608462146FFF7BDFB054B1B681C4464
:100BA00094F868201044034483F8855038BD00BF92
:100BB0000400001010B5044608462146FFF7AAFBC2
:100BC000044B1B681C4494F868201044034493F8B9
:100BD000850010BD0400001038B5044615460846CF
:100BE0002146FFF797FB054B1B681C4494F86820CF
:100BF0001044034483F8845038BD00BF0400001043
:100C000010B504460321FFF785FB0B4B1B6893F8D7
:100C10006B201044034493F8863063B920460321C7
:100C2000FFF778FB044B1B6893F86B2010440344D8
:100C3000002283F8842010BD0400001010B5044683
:100C400008462146FFF766FB044B1B681C4494F8DA
:100C500068201044034493F8840010BD0400001081
:100C600038B5354B1A6801321A6001F027FB334B57
:100C70001B787BB90320FFF76DFB01462F4C2070DA
:100C800003202F4AFFF714FC032021780022FFF7EE
:100C90007DFF05E001F00CFB01F004FB274B187011
:100CA000264B1B7803F20B12D1102648415C02F050
:100CB000070241FA02F212F0010F03D00122224989
:100CC0000A7002E0002220490A70204909788B420C
:100CD00000D101221E4B1B681B6B03B9012232BBE2
:100CE0004FF6FF70FFF780FC0446194B1B681B6B27
:100CF000EBB1124B1A78154B1A70FFF7F5FA05464F
:100D0000A8B10320114B1978FFF798FF012802D1F1
:100D100007232B7001E006232B706C800B4B197896
:100D2000697003200122FFF757FFFFF745FC024BD4
:100D30001A68013A1A6038BD603F0010703F001019
:100D40005C9A0000106A0010713F0010723F0010A2
:100D50000400001030B4154B1C6804331968611A84
:100D60000131134B1A68134B1B68D51A012D00D49F
:100D70001346934204D1104A1268914200D20133C3
:100D800070B10134A40803FB04F40460074A12683C
:100D9000013202F0030203FB021204EB920404602E
:100DA000034A1360044B196030BC704714E000E044
:100DB0007C3F0010743F0010783F0010232905D8B5
:100DC00042544B1C242B03DCD8B27047FF207047E1
:100DD000FF207047002304E023290ED8435401313B
:100DE000C9B211F0010FF7D18B1C242B07DC4B0883
:100DF00020F813200231C8B27047FF207047FF204F
:100E0000704700BF002304E023290ED8435401316A
:100E1000C9B211F0030FF7D10B1D242B07DC8B088F
:100E200040F823200431C8B27047FF207047FF20EC
:100E3000704700BF10B50C4B1B6883B9FFF7F0F982
:100E40000A4C236801332360094B1B6801221A6393
:100E5000FFF706FF2368013B2360FFF7EDF9044B22
:100E60001B68186B10BD00BF5C3F0010603F001096
:100E700004000010024B1B6800221A63704700BF79
:100E80000400001008B50021FFF7BEFC08BD00BF3C
:100E90000EB42DE9F0438AB00746119E854B1B78AE
:100EA000002B40F05C81844B1B78002B40F0578175
:100EB000824B1B681B6B012B40F05181804B1B78D0
:100EC000002B00F04C81AA238DF8003012AB09935F
:100ED00000244FF00408A146C8E0252B40F0C18053
:100EE00009F101095FFA89F9B9F10F0F06D97548BF
:100EF000FFF7DEF94FF00408734EBFE00134A4B2EF
:100F000001E00134A4B2335DA3F13005EDB2092D47
:100F1000F7D9232BF5D02E2BF3D0583B202B00F202
:100F2000A080DFE803F01B9E9E9E9E9E9E9E9E9E3E
:100F3000839E119E329E679E9E9E439E9E9E9E9E77
:100F40009E259E1B9E9E1B00099B1A1D09926846AA
:100F500041461A68FFF756FF804682E0099B1A1D3A
:100F60000992684641461A68FFF74CFF804678E0D0
:100F7000099B1A1D09921868FFF784FF024668460C
:100F80004146FFF727FF80466BE0099B073323F0BC
:100F9000070303F108020992D3E9000106F0DCFD22
:100FA000024668464146FFF72DFF80460134A4B251
:100FB000335D662B55D1099B073323F0070505F1F7
:100FC00008030993D5E9000106F0C6FD024668460C
:100FD0004146FFF717FF804605F110030993D5E955
:100FE000020106F0B9FD024668464146FFF70AFFD6
:100FF000804636E00134A4B2335D642B02D0752BF9
:101000000AD02EE0099B1A1D0992684641461A88AB
:10101000FFF7E0FE804624E0099B1A1D099268460E
:1010200041461A88FFF7D6FE80461AE00134A4B282
:10103000335D642B02D0752B0AD012E0099B1A1D78
:101040000992684641461A78FFF7B8FE804608E0E4
:10105000099B1A1D0992684641461A78FFF7AEFEB1
:1010600080460134A4B2B8F1FF0F04D0335D002BE9
:101070007FF433AF02E04FF00408144E3046394697
:10108000FFF7C2FBADF80200FFF7CAF8104B1A6871
:1010900001321A60FF20FFF7A7FA8DF80100074B15
:1010A0001B681A6BB2B90A4B1A68013A1A60FFF74B
:1010B000C3F854E0713F0010733F001004000010AB
:1010C000723F0010989B00001C9B0000589B000082
:1010D000603F001018F1030400D50334C4F3870403
:1010E000DA691019996988420FD903EB82008A1ACC
:1010F00000F52A501C300021920007F01BFC1A4B0F
:101100001B680022DA6101221A622046FFF728FAE2
:10111000154E3368DA6942F6982505EB8202981875
:1011200004306946424607F08FFB3368DA6903EB07
:1011300082010D44A4F1690129712244DA615969DF
:1011400021445961B2F57A7F03D30022DA6101228A
:101150001A62064B1A68013A1A60FFF76DF80AB076
:10116000BDE8F04303B0704704000010603F00107A
:1011700010B40B4A0B4B13600021516042F2F07225
:101180009818094C206042F2F474195199505A6031
:101190001860064B1A68103A1A605DF8044B7047E5
:1011A00084670010803F001080670010A03A001094
:1011B00010B4134A00E01A4613688342FBD3516807
:1011C0005418844203D1406801445160104641687C
:1011D0004418A3420CD10B4C2468A34206D05B6890
:1011E0001944416013681B68036002E0046000E07A
:1011F0000360824200D010605DF8044B704700BF6E
:10120000846700108067001070B5054600F06CFD23
:101210001D4B1B680BB9FFF7ABFF35B1103515F04F
:10122000070F02D025F0070508356A1E42F2FE734B
:101230009A4221D8154A146801E022461C46636888
:10124000AB4202D22368002BF7D10F4B1B689C42A4
:1012500014D0166810362368136063685B1B202B5C
:1012600004D9601943606560FFF7A2FF6168084B0D
:101270001A68521A1A6002E0002600E0002600F008
:10128000CFFD304670BD00BF80670010846700103E
:10129000A03A001038B5044670B1A0F1100500F076
:1012A00023FD54F80C1C054B1A680A441A602846A2
:1012B000FFF77EFF00F0B4FD38BD00BFA03A00107C
:1012C00000F1080343604FF0FF328260C3600361A6
:1012D00000230360704700BF00230361704700BF15
:1012E00043685A684A6042688A605A6891605960E7
:1012F00041600861036801330360704710B40C68F3
:10130000B4F1FF3F01D1036907E000F1080300E0F9
:101310005B685A681268A242FAD95A684A609160BA
:101320008B60596008610368013303605DF8044B0A
:10133000704700BF436882689A60836842685A6059
:1013400003695A68824201D182685A6000220261B0
:101350001A68013A1A601868704700BF10B5044651
:10136000FEF75EFFA26BE36B9A4214BF00240124D8
:10137000FEF762FF204610BD10B50446FEF750FF91
:10138000A46BD4F1010438BF0024FEF755FF2046BA
:1013900010BD00BF10B50446036C3BB903681BBB0E
:1013A000406800F0EFFF002363601DE06AB98068C9
:1013B0001A4607F049FAA268236C1344A3606268D6
:1013C000934211D32368A3600EE0C0681A4607F069
:1013D0003BFA226C5242E3681344E36021688B427B
:1013E00002D263681A44E260A36B0133A36310BDA9
:1013F00038B5034605685DB1026CC4681444C46026
:101400004068844200D3DD600846D96807F01CFAC2
:1014100038BD00BF38B50446FEF702FF04F12405CD
:101420000AE0636A5BB1284600F0BEFE08B100F036
:1014300033FFA36C013BA364A36C002BF1DC4FF0E2
:10144000FF33A364FEF7F8FEFEF7EAFE04F1100591
:101450000AE023695BB1284600F0A6FE08B100F05F
:101460001BFF636C013B6364636C002BF1DC4FF08A
:10147000FF336364FEF7E0FE38BD00BF38B50446B5
:101480000D46FEF7CDFE2368E06B226C02FB0031B7
:1014900061600021A163A360013800FB0233E360B7
:1014A0004FF0FF336364A36455B9236983B104F13A
:1014B000100000F079FE01280AD1FEF7A9FE07E02E
:1014C00004F11000FFF7FCFE04F12400FFF7F8FE22
:1014D000FEF7B2FE012038BDF8B50D4617460646A8
:1014E000002842D05020FFF78FFE044600283DD050
:1014F00005FB06F00130FFF787FE206020B3E663AE
:10150000256420460121FFF7B9FF84F84D70FEF7EE
:1015100087FE94F84D30164DE85CFEF71BFF02463F
:1015200084F84C0094F84D30E95C01F11800FFF7A5
:1015300017FA94F84D30E85C94F84C100022FFF74D
:101540004BFBFEF779FE11E0FEF76AFE084BD95D12
:1015500001F14000C0B20022FFF702FAFEF76CFE74
:101560002046FFF797FE002400E000242046F8BD47
:10157000983A00102DE9F04784B004468A4601925B
:10158000994600264FF00108524FFEF749FEA56B21
:10159000E06B85422ED294F84D304E4DE95C01F15E
:1015A000200094F84C20FFF7DBF994F84D30E85C0C
:1015B000022805D194F84C100022FFF70DFB06E03D
:1015C000A26B013294F84C10D2B2FFF705FB204613
:1015D00051464A46FFF7DEFE636A3BB104F1240040
:1015E00000F0E2FD012801D1FEF712FEFEF724FE15
:1015F00001206CE0019B8BB9FEF71EFEFEF710FE8A
:1016000094F84D30334AD15C01F1480094F84C20F5
:10161000FFF7A6F9FEF710FE002058E01EB902A859
:1016200000F0FEFD4646FEF707FE00F05DFBFEF70C
:10163000F7FD636CB3F1FF3F01D100236364A36C3A
:10164000B3F1FF3F01D10023A364FEF7F5FD02A82B
:1016500001A900F0F1FD30BB2046FFF77FFEE0B1AD
:10166000FEF7DEFD94F84D30F95C01F1700094F85E
:101670004C20FFF775F9FEF7DFFD04F1100001992A
:1016800000F072FD2046FFF7C5FE00F0C9FB002800
:101690007FF47BAFFEF7BCFD77E72046FFF7BAFE8D
:1016A00000F0BEFB71E72046FFF7B4FE00F0B8FB88
:1016B000FEF7B6FD94F84D30064AD15C01F14800C2
:1016C00094F84C20FFF74CF9FEF7B6FD002004B06B
:1016D000BDE8F087983A00102DE9F04104460F4626
:1016E00090461E464FF0280080F31188A56BE06BF2
:1016F00085422FD294F84D30224DE95C01F1300043
:1017000094F84C20FFF72CF994F84D30A26B01327D
:10171000E85C94F84C10D2B2FFF75EFA20463946E6
:101720003246FFF737FEA36CB3F1FF3F0DD1636A7A
:10173000E3B104F1240000F037FDC8B1B8F1000FA7
:1017400018D00123C8F8003015E0A36C0133A3645E
:10175000012310E094F84D300A4AD15C01F15800A1
:1017600094F84C20FFF7FCF8002304E0012302E08A
:10177000012300E001234FF0000080F31188184698
:10178000BDE8F081983A00102DE9F04385B0044699
:101790008946019298460025704E714FFEF740FD34
:1017A000A26B002A55D0E56820464946FFF720FE87
:1017B000B8F1000F35D194F84D30684DE95C01F176
:1017C000280094F84C20FFF7CBF894F84D30ED5CEE
:1017D000022D0BD194F84C60614B186800F062FD4B
:1017E000C2B228463146FFF7F7F907E0A26B013A8B
:1017F000284694F84C10D2B2FFF7EEF9A36B013BE8
:10180000A363236813B900F053FD60602369E3B15B
:1018100004F1100000F0C8FC012816D1FEF7F8FC16
:1018200013E094F84D304D4AD15C01F1780094F802
:101830004C20FFF795F8E560636A33B104F12400AA
:1018400000F0B2FC08B1FEF7E3FCFEF7F5FC012066
:1018500081E0019A8AB9FEF7EFFCFEF7E1FC94F80B
:101860004D303E4AD15C01F1500094F84C20FFF716
:1018700077F8FEF7E1FC00206DE01DB902A800F04A
:10188000CFFC0125FEF7D8FC00F02EFAFEF7C8FCCD
:10189000636CB3F1FF3F01D100236364A36CB3F128
:1018A000FF3F01D10023A364FEF7C6FC02A801A9F3
:1018B00000F0C2FC00283AD12046FFF75DFD80B35E
:1018C000FEF7AEFC94F84D30F15C01F1680094F83D
:1018D0004C20FFF745F894F84D30F35C022B05D00F
:1018E000386800F0DFFCC0B2FFF78AF9FEF7A4FC0D
:1018F000236833B9FEF794FC606800F0EFFCFEF754
:101900009BFC04F12400019900F02EFC2046FFF717
:1019100081FD00F085FA00287FF440AFFEF778FCE7
:101920003CE72046FFF776FD00F07AFA36E72046DE
:10193000FFF770FD00F074FAFEF772FC94F84D307A
:10194000064AD15C01F1500094F84C20FFF708F8EA
:10195000FEF772FC002005B0BDE8F083983A001055
:101960002068001010B50446006BFFF793FC20467A
:10197000FFF790FC10BD00BF70B506460D46502025
:10198000FFF742FC044680B11DB9B000FFF73CFCF4
:1019900000E02846206320B92046FFF77BFC0024A6
:1019A00003E0A521B20006F0C5FF204670BD00BFD0
:1019B00038B5044615463430102207F08FF800235E
:1019C00084F84330042D00D90425E562E564201D28
:1019D000FFF782FC04F11800FFF77EFC2461C5F1DB
:1019E0000505A561646238BD38B50024104D06E0D8
:1019F00004EB840080002844FFF762FC0134042CCF
:101A0000F6D90C4D2846FFF75BFC0B4C2046FFF740
:101A100057FC0A48FFF754FC0948FFF751FC0948F6
:101A2000FFF74EFC084B1D60084B1C6038BD00BF23
:101A3000B4670010486800105C680010246800104B
:101A40009C670010746800109067001040680010D8
:101A500010B504460E4B1B6858600E4B1B6898422D
:101A600007D20D4B18680A4B19680431FFF746FC82
:101A700010BD0A4B1868064B19680431FFF73EFC8D
:101A8000074B1B689C4201D2054B1C6010BD00BF78
:101A9000206800103C68001040680010906700103B
:101AA000A43A00102DE9F04F83B082468B461546CC
:101AB00099460C9FDDF8348010460E99FFF75CFFC5
:101AC000044600286ED0036B05F18046013E03EB0F
:101AD000860626F00706009559463A460F9BFFF703
:101AE00067FF304651464A46FEF752FB2060B8F188
:101AF000000F01D0C8F80040FEF792FB374B1A6880
:101B000001321A60364B1B6843B9354B1C60334BAE
:101B10001B68012B0CD1FFF767FF09E0314B1B68F5
:101B200033B92F4B1B68DB6ABB4201D82C4B1C60BE
:101B3000E36A2D4A1268934201D92B4A13602B4B5A
:101B40001A68626401321A6094F84800FEF7E2FEF7
:101B5000E06A274B1B68984201D9254B186000EBBF
:101B600080008000234B1844211DFFF7B9FBACB166
:101B70000320FEF7EFFB0146A064032004F13402CA
:101B8000FEF796FC032094F8481094F82C20FEF7FA
:101B9000FDFF1B200321A26CFEF7E2FEFEF74CFBCB
:101BA00001240AE0FEF73CFB432003210022FEF75C
:101BB000D7FEFEF741FB4FF0FF34012C09D1094B52
:101BC0001B6833B1064B1B68DB6ABB4201D2FEF7D0
:101BD0001FFB204603B0BDE8F08F00BF1C6800105B
:101BE0002068001094670010886800104468001096
:101BF000B0670010B46700104369084A934206D1E9
:101C0000836A074A934204D02BB10020704700201A
:101C10007047002070470120704700BF74680010B3
:101C20002468001038B50446002830D0184B1B68D3
:101C300098422CD0FEF7F4FA2046FFF7DDFF01288A
:101C400023D18B200321A26CFEF78AFE251D284696
:101C5000FFF770FB94F84800FEF75CFEE36A0D4A5C
:101C60001268934201D90B4A136003EB83039B0074
:101C7000094818442946FFF733FBE26A044B1B6806
:101C8000DB6A9A4201D3FEF7C3FAFEF7D5FA38BDF4
:101C900020680010B0670010B467001000B585B070
:101CA000002300930193029303930B480B49C8222E
:101CB000FFF7F8FE01280BD14FF0280080F31188C0
:101CC0000122074B1A600022064B1A60FEF788FAC1
:101CD00005B05DF804FB00BF31200000F49B00005C
:101CE000946700103C680010024B1A6801321A60B9
:101CF000704700BF1868001010B5FEF791FA034B4B
:101D00001C68FEF799FA204610BD00BF3C68001021
:101D10002DE9F041384B1B68012B02D0374B1B6873
:101D200033B9374B1A6801321A600020FFF712F8F6
:101D3000314B1B68002B59D1324B1A6801321A60A3
:101D40001B68C3B9304B1968304A106818601160BD
:101D50002F4A1168013111601B681B6823B94FF0CD
:101D6000FF322C4B1A6006E0274B1B68DB68DB68F0
:101D70005A68284B1A60234B1A68264B1B689A42F4
:101D800038D3214EDFF87C80234F33681B682BB992
:101D90004FF0FF321F4B1A60BDE8F0813368DB68FB
:101DA000DC686368D8F800209A4203D2194A1360AD
:101DB000BDE8F081251D2846FFF7BCFAA36A1BB1D8
:101DC00004F11800FFF7B6FA94F84800FEF7A2FDF8
:101DD000E36A3A68934200D93B6003EB83039B00BC
:101DE0000E4818442946FFF77BFACEE7034B1A68E2
:101DF00001321A60BDE8F081186800108C6700108D
:101E0000743F00103C68001090670010406800109C
:101E100038680010A43A0010B0670010B4670010D2
:101E20002DE9F843FEF7FCF92E4B1A68013A1A60C7
:101E30001B68002B4ED12C4B1B6823BB00244CE0AD
:101E4000F368DC6804F11800FFF774FA251D2846D2
:101E5000FFF770FA94F84800FEF75CFDE36A3A6811
:101E6000934200D93B6003EB830080004044294645
:101E7000FFF736FAE26A1D4B1B68DB6A9A4208D309
:101E80004FF0010905E04FF00009194E194FDFF836
:101E900070803368002BD3D1174B1B6833B90BE02C
:101EA000FFF736FF2368013B236000E0124C2368F4
:101EB000002BF5D14FF00109B9F1000F03D10F4B01
:101EC0001B68012B08D100220C4B1A60FEF7A0F909
:101ED000012402E0002400E00024FEF7ADF92046D2
:101EE000BDE8F883186800101C6800102068001016
:101EF00024680010B06700108C6700107068001034
:101F0000B467001038B505460C46FFF7EDFE2B68A8
:101F10001C441C4A1268934207D9A3420DD9194B9D
:101F20001B689C420BD800230EE0A34209D8154B36
:101F30001B689C4207D8002306E0002304E001232D
:101F400002E0012300E001232C60A3B1FEF768F951
:101F500088202146FEF7CAFD0B4D2B6893F84800F8
:101F6000FEF74EFEFEF768F928680430FFF7E2F945
:101F70002046FFF76DFDFFF753FF08B9FEF748F95C
:101F800038BD00BF3C6800102068001038B504461A
:101F9000E0B1FFF7A9FEFEF743F989202146FEF7DD
:101FA000A5FD0D4D2B6893F84800FEF729FEFEF7BE
:101FB00043F90A4B1B681C4428680430FFF7BAF940
:101FC0002046FFF745FDFFF72BFF00E0002008B992
:101FD000FEF71EF938BD00BF206800103C680010F5
:101FE000F8B5104D104E114F17E0FFF77DFE346825
:101FF000FFF716FF8CB1FEF713F9F368DC68201DBC
:10200000FFF798F93B68013B3B602B68013B2B6075
:10201000FEF712F92046FFF7A5FC2B68002BE4D150
:10202000F8BD00BF986700109C6700101C68001086
:1020300008B5FFF7D5FFFCE708B5234B1B681BB1BC
:102040000122224B1A6008BD214B1A6812681B68D6
:102050001B6B9A4205D81E4B18681968343103F07F
:1020600067FA1B4B1B68186B1A49142206F0B8FB61
:1020700050B1174B18681968343103F059FA03E06E
:102080001368013B136001E0134A1449136803EB22
:1020900083039B00CB58002BF2D00F4B1B6803EB44
:1020A00083039B000D4A13445A6852685A6003F137
:1020B00008018A4201D152685A605B68DA68044BB1
:1020C0001A60FEF7CDFD08BD18680010706800109A
:1020D00020680010CC9B0000B0670010B4670010AF
:1020E00070B50546FEF79CF81B4B1B689D4200D15E
:1020F000002515B9184B1C6800E02C468A200321E6
:10210000A26CFEF72DFC94F84800FEF779FD261D21
:102110003046FFF70FF9A36A1BB104F11800FFF76F
:1021200009F90E483146FFF7DBF8FEF785F88DB95F
:102130000B4B1B6813B1FEF76BF870BD074B1A68A9
:10214000084B1B689A4203D10022034B1A6070BDF2
:10215000FFF772FF70BD00BF2068001074680010A8
:10216000946700101C68001038B50D460B4C2168B0
:102170001831FFF7C3F820680430FFF7DBF8B5F13A
:10218000FF3F05D1216806480431FFF7A9F838BDA3
:10219000044B18682844FFF75BFC38BD206800102A
:1021A000746800103C68001038B5C368DC6804F13E
:1021B00018052846FFF7BEF8144B1B68BBB9251D50
:1021C0002846FFF7B7F894F84800FEF7A3FBE36A48
:1021D0000F4A1268934201D90D4A136003EB83033F
:1021E0009B000C4818442946FFF77AF803E00A4898
:1021F0002946FFF775F8E26A084B1B68DB6A9A42CA
:1022000001D3012038BD002038BD00BF1868001080
:10221000B0670010B4670010246800102068001038
:10222000034B1B680360034B1B684360704700BF90
:10223000386800103C68001038B504460D46FDF7BC
:10224000EFFF2B68B3F1FF3F19D0226810490968EE
:102250008A4204D062680F4909688A4211D90D4A3E
:1022600011686268891A8B420DD90A490968521AA5
:1022700013442B602046FFF7D3FF002404E0002422
:1022800002E0012400E00124FDF7D6FF204638BD1E
:10229000386800103C6800100122014B1A6070473A
:1022A0007068001008B1806C70470020704700BF54
:1022B000014B1868704700BF20680010054B1B6871
:1022C00023B1054B1B681BB90120704700207047E4
:1022D00002207047946700101868001038B5044653
:1022E000002847D0C36A244A1268D26A934241D276
:1022F000214A1268D26AC2F105028261426903EB87
:1023000083039B001D490B449A421BD1051D28469F
:10231000FFF710F8184B1B68DB6AE36294F848007B
:10232000FEF7F8FAE36A164A1268934201D9144A92
:10233000136003EB83039B00104818442946FEF703
:10234000CFFF03E00C4B1B68DB6AC362A56C032064
:10235000E9B2FEF72FFC03468E2003212A46FEF742
:1023600079FB054B1B68032094F8481093F82C2048
:10237000FEF70CFC38BD00BF20680010B4670010E9
:10238000B067001070B50446002831D0C26AC36C33
:102390009A422DD0051D2846FEF7CCFFA66C0320DF
:1023A000F1B2FEF707FC03468F2003213246FEF709
:1023B00051FB032094F8481094F84C20FEF7E6FBFC
:1023C000E36CE362C3F10503A36194F84800FEF7F0
:1023D000A1FAE36A074A1268934201D9054A1360D9
:1023E00003EB83039B00044818442946FEF778FF5B
:1023F00070BD00BFB0670010B467001008B540F6AC
:10240000C41000F0DBF8012008BD00BF10B5044681
:1024100000F012F90023064A00E001339342FCDD8C
:1024200020464FF47A7100F039F9012010BD00BF49
:102430009F86010008B5B1F57A7F0DD84FF47A7305
:1024400003FB01F1054BA3FB0121890901F57A7119
:1024500000F024F9012008BD002008BDD34D621012
:1024600030B583B001258DF8045000238DF803307A
:1024700003228DF8022013228DF8012002AC04F80B
:10248000083D684603F0A8FF14238DF80130684624
:1024900003F0A2FF054C2046054903F0C3FD20468A
:1024A000294603F007FE284603B030BD00C00540B2
:1024B000801A0600F0B58DB000AF06465D1C03F132
:1024C0000800C0086C46A4EBC004A546684600F8A6
:1024D000012B1A4606F0B8F976087E60BC60FD60F4
:1024E00000227A61BA6103233B620348391D03F07D
:1024F00043FE3437BD46F0BD00C0054000B58FB087
:102500008DF80720400803900DF107020492012284
:1025100005920791089303230A93044803A9002214
:1025200003F02AFE0FB05DF804FB00BF00C00540B9
:10253000F0B58DB000AF06469D1C03F10900C00840
:102540006C46A4EBC004A54600248DF800408DF82D
:1025500001200DF102001A4606F076F976087E6039
:10256000C7F808D0FD607C61BC6103233B6204486E
:10257000391D224603F000FE3437BD46F0BD00BFD2
:1025800000C0054010B58CB000248DF800408DF8D7
:102590000120400801900DEB0402029202220392F6
:1025A0000591069303230893034801A9224603F0EB
:1025B000E3FD0CB010BD00BF00C0054070B584B095
:1025C000064601258DF8085003951A4C2046002137
:1025D00002AA03F013FF2046002132460B4604F006
:1025E00055F800238DF805308DF804308DF807502C
:1025F0008DF80630204601A903F0BCFF02240D4EE1
:10260000002506E0304621462A4604F087F80134CA
:10261000E4B2062CF6D9074C204603F093FF20467F
:10262000012103F06DFF2046012103F049FF012045
:1026300004B070BD00800140F0B585B005460126AC
:102640008DF80A6000248DF80C408DF80B4043781B
:102650008DF8083003788DF8093002A803F0BCFE2D
:102660008DF80540AB788DF804308DF807408DF873
:102670000640094F384601A903F07CFF3846A97887
:102680002246334604F002F83846A978324604F070
:1026900085F8304605B0F0BD0080014008B50A4617
:1026A00081780348012303F0F1FF012008BD00BF3A
:1026B00000800140154B53F82030154A934209D150
:1026C00003230B700020487002238B70C870012315
:1026D0000B7170470F4A934209D10A230B700020F7
:1026E00048700B238B70C87001230B7170470A4A26
:1026F000934208D100200870487001238B70C87085
:1027000002230B7170470120704700BFFC9B000043
:1027100000C000400080094000C0094010B584B0EE
:102720006946FFF7C7FF9DF8021001229DF80300DC
:1027300002FA01F103F072FB9DF804308DF80A30C3
:1027400000248DF80C4002238DF80B309DF80230E8
:102750008DF809309DF8032004A800F8082D03F037
:102760003BFE204604B010BD10B584B06946FFF7AB
:10277000A1FF9DF8001001229DF8010002FA01F16D
:1027800003F04CFB9DF804308DF80A3000248DF8DE
:102790000C4002238DF80B309DF800308DF8093085
:1027A0009DF8012004A800F8082D03F015FE20462E
:1027B00004B010BD2DE9F04389B005465A4B1B5CAF
:1027C000012B00F0AB80069103238DF81D3000260D
:1027D0008DF81C608DF81E60544B53F82040204645
:1027E00006A904F0A7FA2046012104F061FC204666
:1027F0003146012204F072FB4D4B9C4206D14D4BF9
:10280000302283F8052320221A6013E04A4B9C42B1
:1028100006D1484B302283F8072380221A6009E052
:10282000464B9C427CD1434B302283F808234FF423
:1028300080721A6005A804F033FC03238DF817306A
:1028400001268DF81660394B53F82540204605A91E
:1028500004F0C0FB2046314604F02AFC03F094F952
:10286000374B00241C60DFF8F88098F800004FF424
:102870009672344900FB0211D9601C615A609C6059
:102880005E619C610821D9611C622F480660C460AA
:10289000DFF8D09099F800102C4B01FB0233036154
:1028A000426084600227476109238361C461046236
:1028B000274B1C60274B1C60274B1C60274B1C6060
:1028C00003F082F93046314603F078FA89F8004087
:1028D00088F800408DF80C6004968DF800408DF863
:1028E00001608DF803608DF802608DF8044041F2BC
:1028F000883302934FF04020214603AA04F01EF8CB
:102900004FF04020694604F0E9F80A4B302283F882
:1029100001231F60044B5E55204602E0022000E0C8
:10292000012009B0BDE8F0838C680010FC9B00001A
:1029300000C0004000E100E00080094000C0094004
:10294000A06C0010406A00101C6F0010C46C0010D6
:102950003C6A0010986C0010386A00109C6C0010E3
:10296000906800109868001021B1034A42F82010C6
:1029700000207047012070479C68001010B5104C73
:102980002178104A4FF4967301FB03230E48C3606D
:102990000E4B1B68436003F017F90020012103F080
:1029A0000DFA2378DBB2012B02D10022227002E063
:1029B0000122034B1A700022044B1A6010BD00BFA5
:1029C00090680010406A0010A06C0010946800101D
:1029D00070B50E461446294B1B78DBB2012B07D18C
:1029E0004FF04020002104F031F80022234B1A70F0
:1029F000234B1B682344B3F5967F11D2214B1978E2
:102A00001F4D2A684FF4967301FB03231E48184498
:102A10003146224605F018FF2B681C442C6012E05A
:102A2000FFF7ACFF174B1978154D2A684FF49673D2
:102A300001FB0323144818443146224605F004FFE5
:102A40002B681C442C600E4B1A6840F22B139A42E0
:102A500002D1FFF793FF0FE04FF0402004F01CF885
:102A6000064B1B7813F0FF0F06D10121034B1970A1
:102A70004FF0402003F0EAFF002070BD996800107D
:102A80009468001090680010406A001038B5044641
:102A9000002300E00133FF2BFCD90120002103F0CB
:102AA0008DF91A4B5D681A4B18781A494FF49672D3
:102AB00000FB0212AD1A1B7813F0FF0F03D10122A5
:102AC000134B1A7002E00022114B1A70104B197848
:102AD000104B4FF4967201FB02320F48026103F073
:102AE00073F80120014603F069F90C4B53F82430C8
:102AF0005BB1074A127812F0FF0F03D1084829464C
:102B0000984738BD03482946984738BD20410050B2
:102B100098680010C46C00101C6F00109C680010B6
:102B2000F06D001008B50020FFF7B0FF08BD00BF32
:102B300008B50120FFF7AAFF08BD00BF08B50220B5
:102B4000FFF7A4FF08BD00BF08B54FF040200021EB
:102B500003F0A4FE012804D1FFF710FF0022044B6C
:102B60001A704FF04020002103F0C4FE08BD00BFE2
:102B70009968001000B583B0244B93F82430C3B19A
:102B800018B102238DF8073002E000238DF80730DA
:102B90001E4B5A681B6810780DF107015A7C0123FF
:102BA000FFF788FC28B39DF80720184B5A740020C3
:102BB00029E0164B9B7AFBB110B1144B5B7CF3B947
:102BC00018B101238DF8073002E000238DF807309B
:102BD0000E4B5A681B6810780DF107015A7C0123CF
:102BE000FFF768FC68B19DF80720084B5A74002075
:102BF00009E04FF0FF3006E04FF0FF3003E0002027
:102C000001E04FF0FF3003B05DF804FBA83A00107C
:102C100000B583B0824B9B7A002B00F0DD8002A9C7
:102C2000002301F8013D7E4B5A681B6810785A7CDE
:102C30000123FFF73FFC002800F0D180784B5A6851
:102C40001B6810780DF107015A790123FFF732FC58
:102C5000002800F0C780724B5A681B6810780DF18D
:102C600007011A790123FFF725FC002800F0BD8039
:102C70006B4B93F82430002B58D002A90C2301F899
:102C8000013D674B5A681B6810781A790123FFF7DA
:102C900011FC002800F0AC800022624B1A601A463A
:102CA000614901E00133136013688B42FADDC023F0
:102CB0008DF807305A4B9B7A13F0010F02D0E023B6
:102CC0008DF80730564B5A681B6810780DF10701D4
:102CD0001A790123FFF7EEFB002800F08C80504B9F
:102CE0005B7C1BB102238DF8073002E000238DF8D6
:102CF00007304B4B5A681B6810780DF107015A7C5E
:102D00000123FFF7D7FB002878D002A9002301F8A0
:102D1000013D434B5A681B6810785A790123FFF72D
:102D2000C9FB00286DD14FF0FF3076E002A90423E3
:102D300001F8013D3A4B5A681B6810781A79012353
:102D4000FFF7B8FB00285ED0354B9B7C23B9344B92
:102D50009B7A13F0010F03D140238DF8073002E076
:102D600060238DF807302E4B5A681B6810780DF1E0
:102D700007011A790123FFF79DFB002846D00022A6
:102D8000284B1A601A46284901E001331360136882
:102D90008B42FADD224B5B7C1BB101238DF807309F
:102DA00002E000238DF807301D4B5A681B6810782D
:102DB0000DF107015A7C0123FFF77CFB48B318494A
:102DC0004A6851F8103B10785A790123FFF772FBDB
:102DD00010BB4FF0FF3020E04FF0FF301DE04FF010
:102DE000FF301AE04FF0FF3017E04FF0FF3014E0F3
:102DF0004FF0FF3011E04FF0FF300EE04FF0FF30AA
:102E00000BE0002009E04FF0FF3006E04FF0FF300C
:102E100003E04FF0FF3000E0002003B05DF804FB5A
:102E2000A83A0010406F00103F4B4C0000B583B033
:102E3000224B9B7AABB3B0F5FA7F0ED002D8FA28BA
:102E400007D031E0B0F57A7F0BD0B0F5FA6F0CD037
:102E50002AE000238DF807300AE008238DF80730B8
:102E600006E010238DF8073002E018238DF80730B4
:102E7000124B1B7A9DF80720B3EBD20F17D00F4BE4
:102E80005A681B6810780DF107019A790123FFF742
:102E900011FB70B19DF80720D208084B1A72002070
:102EA00009E04FF0FF3006E04FF0FF3003E0002074
:102EB00001E04FF0FF3003B05DF804FBA83A0010CA
:102EC0000F4B5B7A032B16D8DFE803F00205080BE3
:102ED0000223037007E00423037004E00823037057
:102EE00001E010230370064BDB7C3BB103785B00F1
:102EF0000370002070474FF0FF307047002070478C
:102F0000A83A001000B583B0224B9B7A002B34D036
:102F100002380E2834D8DFE800F008330C3333339E
:102F20001033333333333333140000238DF8073039
:102F30000AE008238DF8073006E010238DF80730EB
:102F400002E018238DF80730124B5B7A9DF80720BA
:102F5000B3EBD20F17D00F4B5A681B6810780DF1E6
:102F60000701DA790123FFF7A5FA70B19DF8072070
:102F7000D208084B5A72002009E04FF0FF3006E0FB
:102F80004FF0FF3003E0002001E04FF0FF3003B0CE
:102F90005DF804FBA83A001000B583B0224B9B7A81
:102FA000BBB3BB2803D901238DF807301AE0612891
:102FB00003D902238DF8073014E0292803D903230D
:102FC0008DF807300EE0132803D904238DF807305D
:102FD00008E0092803D905238DF8073002E006230D
:102FE0008DF80730104BDA7A9DF807309A4213D0EB
:102FF0000D4B5A681B6810780DF107019A78012370
:10300000FFF758FA50B19DF80720074BDA720020FD
:1030100006E04FF0FF3003E0002001E04FF0FF300A
:1030200003B05DF804FB00BFA83A00100D4B1B7AFB
:10303000032B13D8DFE803F002060A0E0A4B0360E5
:1030400000207047094B036000207047084B036065
:1030500000207047074B0360002070474FF0FF309F
:10306000704700BFA83A00100000034300008342ED
:10307000333303423333834170B500F0FE04164B03
:1030800093F8243013BB144B9B7A0BB3124A167C73
:10309000234013749C4202D04FF0FF3500E000251E
:1030A00014B90D4B1B7D1BB10120FFF763FD02E03E
:1030B0000020FFF75FFD3CB1FFF7AAFD20B1064BF2
:1030C0001E744FF0FF3070BD284670BD002070BDEB
:1030D0004FF0FF3070BD00BFA83A0010F0B583B0CC
:1030E00004460F4616462D4B93F82430002B44D04F
:1030F0002A4B9B7A002B43D0284B5A681B681078C8
:1031000001A91A7B0223FFF7F9F900283BD09DF8AB
:1031100004509DF8053043EA0525A54204D200235A
:1031200033704FF0FF3036E01C4B5B685A88B5EBCC
:10313000520F12D9194A1268187801A9D27C0123BA
:10314000FFF7DCF910B39DF8043013F0100F04D032
:10315000FFF75EFD6FF001001DE0104B5A681B6821
:10316000107839465A7B2346FFF7C8F988B1B5FB7A
:10317000F4F4013C347000200DE04FF0FF300AE021
:103180004FF0FF3007E04FF0FF3004E04FF0FF302A
:1031900001E04FF0FF3003B0F0BD00BFA83A0010CF
:1031A00010B582B00446604B9B7C834200F0A68041
:1031B00000284AD05C4B5A681B6810780DF1070153
:1031C0001A790123FFF79AF9002800F099809DF8F9
:1031D000073023F0200302A901F8013D524B5A6841
:1031E0001B6810781A790123FFF764F9002800F0B2
:1031F0008A8000224D4B1A601A464D4901E0013386
:10320000136013688B42FADD02238DF80730464BBA
:1032100093F8223013B182238DF80730424B93F894
:1032200023302BB19DF8073043F030038DF8073081
:103230003D4B5A681B6810780DF10701DA7D0123B8
:10324000FFF738F9002855D160E0374B5A681B6802
:1032500010780DF107011A790123FFF74FF90028C3
:1032600057D0314B9B7A13F0010F06D09DF80730F1
:1032700043F020038DF8073005E09DF8073023F078
:1032800020038DF80730284B5A681B6810780DF121
:1032900007011A790123FFF70DF900283CD000221D
:1032A000224B1A601A46224901E001331360136869
:1032B0008B42FADD1C4B93F822301BB180238DF832
:1032C000073002E000238DF80730174B93F82330C6
:1032D0002BB19DF8073043F030038DF80730124BC7
:1032E0005A681B6810780DF10701DA7D0123FFF79A
:1032F000E1F8A0B10C4B9C74002012E0002010E01B
:103300004FF0FF300DE04FF0FF300AE04FF0FF309C
:1033100007E04FF0FF3004E04FF0FF3001E04FF0E6
:10332000FF3002B010BD00BFA83A0010406F00107F
:10333000DF93040010B582B004461B4B93F8233092
:1033400083422AD018B130238DF8073002E00023E1
:103350008DF80730144B9B7C2BB19DF8073043F060
:1033600002038DF80730104B93F822302BB19DF8F3
:10337000073063F07F038DF807300B4B5A681B68EA
:1033800010780DF10701DA7D0123FFF793F830B1D2
:10339000054B83F82340002003E0002001E04FF0BC
:1033A000FF3002B010BD00BFA83A001010B582B0C7
:1033B000044628285CD8B8B90020FFF7BBFF0023DB
:1033C0008DF8043007238DF805302E4B5A681B68A2
:1033D000107801A95A7D0223FFF76CF800284AD023
:1033E0000020284B18754BE00120FFF7A3FF202396
:1033F0008DF80430012C06D100238DF8053005200E
:10340000FFF7CAFD17E0052C06D801238DF805301B
:103410000520FFF7C1FD0EE0142C06D802238DF81D
:1034200005300A20FFF7B8FD05E003238DF80530CD
:103430001420FFF7B1FD9DF805309B0143F0070311
:103440008DF805300F4B5A681B68107801A95A7D1A
:103450000223FFF72FF888B10A4B08229A72002442
:103460001C7301221A752046FFF706FE204607E06E
:103470004FF0FF3004E04FF0FF3001E04FF0FF303D
:1034800002B010BDA83A001010B582B00446254B1A
:103490009B7A002B3CD0234B93F82430002B3AD15D
:1034A000204B1B7D5BB1431E9BB2272B04D8C0B2BF
:1034B000FFF77CFF002033E00020FFF777FF032CAD
:1034C00003D9B4F57A7F02D803E0042401E04FF475
:1034D0007A744FF47A7393FBF4F4013C02A901F877
:1034E000014D104B5A681B6810785A780123FEF77B
:1034F000E1FF98B19DF8070001304FF47A7393FB18
:10350000F0F0084BD8814008FFF746FD002007E0A7
:103510004FF0FF3004E04FF0FF3001E04FF0FF309C
:1035200002B010BDA83A001010B582B0044610F0E9
:10353000700F03D001238DF8073007E018B1002386
:103540008DF8073002E040238DF80730304B5A6881
:103550001B6810780DF107015A7D0123FEF7AAFFC1
:1035600028B900222A4B9A724FF0FF304EE09DF8A6
:10357000072022F04002264B1A7300238DF80730F3
:1035800014F0400F02D104238DF8073014F0200FFF
:1035900005D19DF8073043F002038DF8073014F091
:1035A000100F05D19DF8073043F001038DF8073067
:1035B00014F0080F05D19DF8073043F038038DF85B
:1035C0000730134B5A681B6810780DF107019A7D7C
:1035D0000123FEF76FFF28B900220D4B9A724FF0BE
:1035E000FF3013E024B1082C02D00020FFF7A2FE28
:1035F000074A947200231375064A1360064901E0D6
:103600000133136013688B42FADD002002B010BD55
:10361000A83A0010406F00103F4B4C0030B583B00B
:1036200002A9802301F8083D654B5A681B68107891
:1036300069465A7D0123FEF73DFF002800F099807E
:103640000022604B1A601A465F4901E001331360A3
:1036500013688B42FADD02A9002301F8083D584B9C
:103660005A681B68107869465A7D0123FEF722FFCD
:10367000002800F08180524B5A681B681078694618
:103680005A7E0623FEF73AFF002878D09DF80510F1
:1036900001F001019DF8032002F0010252009DF8A3
:1036A000013042EA810203F0010313430BD0012BE6
:1036B00003D10122424BDA741EE0022B62D10022B8
:1036C0003F4BDA7418E03E4B5A681B681078694625
:1036D000DA780123FEF712FF002856D09DF800305B
:1036E00013F00F0354D0042B03D10122344BDA74AE
:1036F00002E00022324BDA74314CFF23A3722372B2
:103700006372E3724FF6FF72E2812374A3740123A4
:10371000237384F82230002584F8235065752575BD
:1037200004F1160029460C2205F004F984F824500F
:1037300084F82550E5844FF4FA60FFF777FB50BB1F
:103740000220FFF7DFFB48BB2A20FFF725FC40BB28
:103750003220FFF799FE38BB2846FFF78DFC30BBBF
:103760002846FFF71DFD044620BB2846FFF7DCFE78
:1037700022E04FF0FF341FE04FF0FF341CE04FF029
:10378000FF3419E04FF0FF3416E04FF0FF3413E040
:103790004FF0FF3410E04FF0FF340DE04FF0FF34F6
:1037A0000AE04FF0FF3407E04FF0FF3404E04FF041
:1037B000FF3401E04FF0FF34204603B030BD00BFBE
:1037C000A83A0010406F00107F96980070B582B044
:1037D0000D46164622B31A4B9B7A23B3030A8DF883
:1037E0000430C0B28DF805000844154B5C6863894D
:1037F00098421BDC124B1B68207801A9DA7E022359
:10380000FEF758FEA8B10E4B5A681B681078314677
:103810001A7E2B46FEF74EFE70B94FF0FF300CE0DB
:103820004FF0FF3009E04FF0FF3006E04FF0FF307F
:1038300003E04FF0FF3000E0002002B070BD00BF99
:10384000A83A001070B582B00D46164622B31A4B46
:103850009B7A23B3030A8DF80430C0B28DF80500BB
:103860000844154B5C68638998421BDC124B1B684B
:10387000207801A9DA7E0223FEF71CFEA8B10E4BC8
:103880005A681B68107831461A7E2B46FEF736FEC2
:1038900070B94FF0FF300CE04FF0FF3009E04FF00F
:1038A000FF3006E04FF0FF3003E04FF0FF3000E064
:1038B000002002B070BD00BFA83A00102DE9F04F03
:1038C00087B08046894692469B46294B93F825301F
:1038D000002B39D100293AD000241BE0C4EB0806A4
:1038E000102EA8BF1026B5B209EB040720462946C2
:1038F0003A46FFF76BFF68BB2046294602AAFFF74E
:10390000A1FF50BB384602A92A4604F069FF38BB24
:103910002C44A4B24445E1D34FEA1A238DF8043075
:103920008DF805A0124B5A681B68107801A95A7FC0
:103930000223FEF7BFFDB0B10D4B012283F8252015
:10394000A3F826B0002010E04FF0FF300DE04FF05C
:10395000FF300AE04FF0FF3007E04FF0FF3004E0A7
:103960006FF0010001E04FF0FF3007B0BDE8F08FCD
:10397000A83A001030B583B0204B93F8243083422E
:1039800036D000B31D4B93F825309BB30020FFF7D2
:10399000F1F80020FFF704FC184CE08CFFF774FDF1
:1039A000002502A901F8015D63681878232201232C
:1039B000FEF780FD012084F82400FFF7DBF8FFF715
:1039C00027F9284618E00020FFF7D4F80B4C237C99
:1039D00002A901F8013D6368187823220123FEF74C
:1039E00069FD002584F82450FFF712F9284603E00A
:1039F000002001E04FF0FF3003B030BDA83A0010C6
:103A000038B50446C17801F0C00501F03F024378A3
:103A100013F0010F07D0D00801F007010131074B67
:103A20001B6803B19847637813F0080F04D0034B69
:103A30005B680BB1A8099847002038BDA868001042
:103A400008B540F6F63003494FF48062C823FFF70B
:103A500035FF08BDA89C000010B586B0044603AB36
:103A6000174A52F8100F5168926807C3C82C1CD827
:103A7000C82393FBF4F3013B9BB21A0A8DF8042090
:103A80008DF8053040F21620022101AAFFF79EFEB4
:103A900070B940F6C1200C210DEB0102FFF796FE34
:103AA000034640B9074A948107E04FF0FF3304E032
:103AB0004FF0FF3301E04FF0FF33184606B010BD62
:103AC0005C9C0000A868001070B582B0044610F03D
:103AD000070F00F0A280B1F5C86F00F2A180084680
:103AE00004F060F95B4904F069FA05460DF1030042
:103AF000FFF7E6F99DF80330023B0E2B00F29380AE
:103B0000DFE803F00891189191912891919191919A
:103B10009191380028464FF08D4104F09BF904F054
:103B20005FFB86B228464C4904F094F904F058FB38
:103B300080B22EE028464FF08C4104F08BF904F05F
:103B40004FFB86B22846454904F084F904F048FB4F
:103B500080B21EE028464FF08B4104F07BF904F060
:103B60003FFB86B228463E4904F074F904F038FB66
:103B700080B20EE028464FF08A4104F06BF904F061
:103B80002FFB86B22846374904F064F904F028FB7D
:103B900080B2330A8DF804308DF80560030A8DF881
:103BA00006308DF8070014F0010F0ED04FF4EA70C4
:103BB000022101AAFFF70AFEC0BB4FF49270022156
:103BC0000DF10602FFF702FE98BB14F0020F0ED0B3
:103BD0004FF4EC70022101AAFFF7F8FD60BB4FF42F
:103BE000947002210DF10602FFF7F0FD38BB14F0CE
:103BF000040F27D04FF4EE70022101AAFFF7E6FD73
:103C000010BB4FF4967002210DF10602FFF7DEFDA6
:103C10000346D8B14FF0FF3318E04FF0FF3315E003
:103C20004FF0FF3312E04FF0FF330FE04FF0FF3360
:103C30000CE04FF0FF3309E04FF0FF3306E04FF0A8
:103C4000FF3303E0002301E04FF0FF33184602B0DA
:103C500070BD00BF00004843000040460000C04562
:103C6000000040450000C04400B583B000238DF83B
:103C7000073010F0010F02D030238DF8073010F01C
:103C8000020F05D09DF8073043F00C038DF8073084
:103C900010F0040F05D09DF8073043F003038DF8B2
:103CA00007304FF4A47001210DF10702FFF78EFDDC
:103CB00003B05DF804FB00BF00B583B0034610B14C
:103CC000042802D802E0012300E00423013B02AAF9
:103CD00002F8013D40F24F100121FFF777FD03B0DC
:103CE0005DF804FB00B583B0084BA3FB00208008FF
:103CF000030A8DF804308DF805004FF4EF700221AF
:103D000001AAFFF763FD03B05DF804FBCDCCCCCC7A
:103D100000B583B0084BA3FB00208008030A8DF890
:103D200004308DF805004FF4ED70022101AAFFF771
:103D30004DFD03B05DF804FBCDCCCCCC00B583B019
:103D40000F4B83FB0023C017C0EBA31001FB00F156
:103D50000B0E8DF80430C1F307438DF80530C1F325
:103D600007238DF806308DF807104FF4AE7004214C
:103D70000DEB0102FFF72AFD03B05DF804FB00BF65
:103D8000D34D621000B583B0084BA3FB0020800820
:103D9000030A8DF804308DF805004FF4AD70022150
:103DA00001AAFFF713FD03B05DF804FBCDCCCCCC2A
:103DB00000B583B0084BA3FB00208008030A8DF8F0
:103DC00004308DF805004FF4AC70022101AAFFF712
:103DD000FDFC03B05DF804FBCDCCCCCC00B585B0C8
:103DE00070B101AB0F4A52F81C0F516803C3127A2D
:103DF0001A704FF49760092101AAFFF7E7FC0DE064
:103E000001AB084A52F8280F516803C3127A1A709E
:103E10004FF49760092101AAFFF7D8FC05B05DF8BF
:103E200004FB00BF5C9C000000B583B060B1C02300
:103E30008DF80430C2238DF80530C4238DF8063088
:103E4000C6238DF8073004E001A88B21042204F07A
:103E500071FD40F6982004210DEB0102FFF7B6FC3E
:103E6000FEF7D6FE03B05DF804FB00BF00B583B0DB
:103E700060B120238DF8043028238DF805303023DD
:103E80008DF8063038238DF8073004E001A8A3210F
:103E9000042204F04FFD40F69E2004210DEB0102A8
:103EA000FFF794FCFEF7B4FE03B05DF804FB00BF1F
:103EB0002DE9F04184B0044602238DF80430CA2372
:103EC0008DF80530E3238DF8063009238DF807308F
:103ED000682004210DEB0102FFF778FCA3238DF885
:103EE000043004F04006B6B24EB1C0238DF8053060
:103EF000C8238DF80630C2238DF8073006E0A323CF
:103F00008DF805308DF806308DF8073014F4C07543
:103F100009D0C4238DF80830CC238DF80930C6238E
:103F20008DF80A3006E0A3238DF808308DF80930AB
:103F30008DF80A30A3238DF80B308DF80C308DF8F6
:103F40000D3040F6A7200A2101AAFFF73FFC14F02C
:103F5000030803D020238DF8043002E0D8238DF825
:103F6000043040F6B620012101AAFFF72FFC04F02F
:103F700020039BB21BB10120FFF730FF02E00020BD
:103F8000FFF72CFF1DB304F480739BB263B1B2231F
:103F90008DF804308B238DF80530B6238DF806306C
:103FA0009B238DF807300BE0B0238DF8043080237D
:103FB0008DF80530B4238DF8063090238DF8073046
:103FC00040F6A22004210DEB0102FFF7FFFB14F0E5
:103FD000010F24D004AAF82302F80C3D4FF40B6023
:103FE0000121FFF7F3FB0720FA21FFF76DFD072002
:103FF000FFF73AFE0120FFF75FFE6420FFF772FE35
:104000004FF4FA70FFF784FE2E48C821FFF796FEA2
:104010002820FFF7B7FE0A20FFF7CAFE08E004AA2F
:10402000D82302F80C3D4FF40B600121FFF7CEFBC3
:1040300004F002039BB21BB1D9238DF8043002E0D7
:10404000D8238DF8043040F23D70012101AAFFF71A
:10405000BDFB04F004039BB21BB10120FFF7E4FE9B
:1040600002E00020FFF7E0FE04F010039BB21BB15A
:104070000120FFF7FBFE02E00020FFF7F7FE124FE2
:1040800044F008037B81FEF7C3FD0023BB730EB130
:104090000622BA731DB10C4B9A7B06329A7314F048
:1040A000140F03D0084B9A7B10329A73B8F1000FAB
:1040B00003D0054B9A7B04329A73002004B0BDE80C
:1040C000F08100BF09E3CA02A86800102DE9F0439F
:1040D00089B0074688461646109C00232380684B0B
:1040E000987B6946119AFEF7F9FF8146002840F057
:1040F000C180634B5D8915F0140F5AD09DF80030D4
:104100009DF80110090441EA03619DF8023041EA7B
:1041100003219DF80330194331609DF804309DF868
:104120000500000440EA03609DF8063040EA0320E1
:104130009DF80730184370609DF808309DF80920FD
:10414000120442EA03629DF80A3042EA03229DF813
:104150000B301A43B2609DF80CC09DF80D301B0463
:1041600043EA0C639DF80EC043EA0C239DF80FC090
:1041700043EA0C03F3600914001412141B1400FB2F
:1041800000F001FB010102FB021203FB032303F118
:104190007143B3F1007F06D9FEF73AFD0023238077
:1041A0004FF0FF3968E0238843F4807323801020A8
:1041B00000E0002005F0400292B24AB308AA02448F
:1041C00012F8201C08AA024412F81F2C42EA01220D
:1041D000A8F8002008AA024412F81E1C08AA0244EB
:1041E00012F81D2C42EA0122A8F8022008AA024473
:1041F00012F81C1C08AA024412F81B2C42EA0122E5
:10420000A8F80420831DD8B2228842F00802228038
:1042100015F4C07F26D008AA024412F8201C08AA70
:10422000024412F81F2C42EA01223A8008AA0244F2
:1042300012F81E1C08AA024412F81D2C42EA0122A0
:104240007A8008AA024412F81C1C08AA024412F838
:104250001B2C42EA0122BA80831DD8B2228842F088
:104260007002228015F0030F06D000AB1844FFF750
:10427000C7FB01E04FF0FF39484609B0BDE8F083C5
:10428000A868001010B5D418B4F5FA5F05DCB3F5D2
:10429000FA5F04D8FEF776F910BD002010BD0020AB
:1042A00010BD00BF2DE9F84F07460E4615461C46C7
:1042B000D318B3F5FA5F11DD36E0384631462A46A9
:1042C0004346FEF735F901282FD12035ADB2203C09
:1042D000A4B220364846FDF759FE03E04FF020080F
:1042E0004FF005091F2CE8D815E006F1010905F18A
:1042F00001081FFA88F8384631462A465346FEF729
:1043000017F9012811D1013CA4B25846FDF73EFE31
:104310004E46454603E04FF0010A4FF0050B002CD6
:10432000E3D10120BDE8F88F0020BDE8F88F00BF81
:1043300010B582B0C0F307210124C0B204FA01F124
:10434000224601F06BFD204602B010BD00B583B0DF
:104350000190C0F30740012808D19DF805309DF871
:1043600004000121994001F069FD07E09DF8053046
:104370009DF804000121994001F068FD012003B07F
:104380005DF804FB00B583B00190C0F3074040B96D
:104390009DF805309DF804000121994001F04EFD83
:1043A00007E09DF805309DF804000121994001F0D7
:1043B0004DFD012003B05DF804FB00BF2DE9F04185
:1043C0000D4617461C46C1EB00080698194603F037
:1043D00037FC0646404603F0E9FC314603F03AFD5F
:1043E0000646781B03F0E2FC0146304603F0E6FD8A
:1043F000214603F027FCBDE8F08100BF2DE9F0471E
:10440000394B18883949FCF743FD00244FF07E559D
:10441000374F384E1DE038484FEAC40EC4EB0E0249
:10442000D2008318012183F8891083F88A1083F859
:1044300088101D675F67C3F88460DD67C3F880502C
:10444000C4EB0E03DB001844643001F01FFA0134A2
:10445000E4B2022CDFD90024274F0125DFF8A8A001
:10446000DFF8A890DFF88C804FF07E561CE0E0006B
:10447000031BDB003B4483F8315183F8325183F84E
:104480003051C3F818A1C3F81C91C3F82C81C3F8AC
:104490002461C3F82861001BC000384400F5867011
:1044A00001F0F4F90134E4B2022CE0D9012000213A
:1044B0000322FDF711F8114B186020B100210A46C4
:1044C0000B46FDF757F80D4B186800210A460B46BE
:1044D000FDF75AF94FF40012094B1A6009480221FE
:1044E00001F042F8BDE8F087446F0010A0A800007A
:1044F000000080BF0AD7A33B88770010746F0010BC
:1045000000E100E0B4A8000000007A4300007AC394
:1045100008B5154BB3F8603003F4804292B21AB17B
:104520000222124B1A7019E003F4005292B21AB12F
:1045300001220E4B1A7011E013F4004F03D0002239
:104540000A4B1A700AE003F480539BB21BB103229A
:10455000064B1A7002E00122044B1A70044B1868D3
:10456000FDF760FB08BD00BF88770010D43A00104B
:10457000E8750010F8B50024144DA5F1090606F100
:104580000C0711E028460021FDF754FFA81F002169
:10459000FDF750FF30460021FDF74CFF3846002163
:1045A000FDF748FF0134E4B2092CEBD9084B186839
:1045B000FDF796FD074B1A78597842EA0122987860
:1045C00042EA0040FFF7DEFEF8BD00BF053B0010E9
:1045D000E8750010103B00102DE9F04F89B0074638
:1045E0000E4600244FF062550EE056F824000014E9
:1045F00003F0DCFB294603F02DFC08AA02EB840340
:1046000043F8100C0134E4B2032CEED9059D284682
:10461000294603F017FB8246069E314603F01AFC3A
:104620008346DDF810904846494603F00BFB804670
:10463000079C214603F00EFC0146584603F000FBA0
:1046400083464846414603F005FC814628465146CC
:1046500003F000FC0146484603F0F4FA4FF07E51A7
:1046600003F0EEFA0190584602F088FFCDE902010E
:10467000019802F083FF02460B46DDE9020104F0D7
:10468000E3FA03F089FA38605046214603F0E2FB72
:1046900082463046414603F0DDFB0146504603F0BA
:1046A000D1FA02F06BFF04F07BFA03F075FA00F127
:1046B000004078603046314603F0C4FA0146204697
:1046C00003F0C8FB06462846414603F0C3FB0146FB
:1046D000304603F0B5FA05462046214603F0B2FA0B
:1046E0000146204603F0B6FB0146484603F0AAFA0D
:1046F0004FF07E5103F0A4FA0646284602F03EFF32
:1047000004460D46304602F039FF02460B4620466D
:10471000294604F099FA03F03FFAB860002009B086
:10472000BDE8F08F000000002DE9F04F87B073481E
:10473000FEF77CFC012002A901F09EF94FF07E55A6
:104740006F4B1A786F4B1A706F4BB3F8603013F4DD
:10475000407F03D001216A4B197002E00021684BB1
:104760001970674B1B78012B03D112B9FFF7D0FEEC
:1047700004E01BB9012A01D1FFF7FCFE634B186866
:1047800000214FF0FF320B46FCF7FEFFFBF748FD20
:104790005F4C604B0093604B019360486049224638
:1047A0000023FFF793FCFBF747FD5E482146FFF728
:1047B00013FF5D4B1B78032B00F2EF80DFE803F063
:1047C00064330295504B93F8590010F0800F02D1DA
:1047D000C0F1FF0000E07F2000957F21FF22002331
:1047E000FFF7ECFD484C606294F85A004F4E504F72
:1047F00000970021FF223346FFF7E0FDA06194F807
:104800005B0000970021FF223346FFF7D7FDE061F0
:1048100094F85800474B00930021FF22464BFFF7C6
:10482000CDFD2062B9E0384B93F8590010F0800FAD
:1048300002D1C0F1FF0000E07F2000957F21FF2220
:104840000023FFF7BBFD304C606294F85A003B4EEA
:104850003B4F00970021FF223346FFF7AFFDA061D9
:1048600094F85B0000970021FF223346FFF7A6FD76
:10487000E06194F858002F4B00930021FF222E4B4B
:10488000FFF79CFD206288E01F4B93F8590010F061
:10489000800F02D1C0F1FF0000E07F2000957F2152
:1048A000FF220023FFF78AFD174C606294F85A003C
:1048B000224E234F00970021FF223346FFF77EFD53
:1048C000A06194F85B0000970021FF223346FFF7B8
:1048D00075FDE06194F858001A4B00930021FF2207
:1048E000194BFFF76BFD206257E0074B93F8590017
:1048F00010F0800F2AD1C0F1FF0028E0D875001019
:10490000D0680010BC68001088770010746F001029
:10491000546F0010DC750010CA750010C4750010CB
:10492000786F0010646F0010D43A00100000B4C219
:104930000000B44200003443000034C3000020C231
:104940000000204200003442000034C27F20009565
:104950007F21FF220023FFF731FDB14C606294F804
:104960005A00B04EB04F00970021FF223346FFF7A8
:1049700025FDA06194F85B0000970021FF223346DB
:10498000FFF71CFDE06194F85800A84B009300214C
:10499000FF22A74BFFF712FD2062DFF8C492B9F99E
:1049A0000000A44B1E68404203F000FA314603F0B9
:1049B00005FB07469A4C2060B9F9020003F0F6F9AE
:1049C000314603F0FBFA80466060B9F904004042CA
:1049D00003F0ECF9314603F0F1FA8146A060964EFF
:1049E000B068924903F036FA02F0C8FD88A3D3E913
:1049F000002302F041FF03F0CFF8E060706800F19F
:104A000000408A4903F026FA02F0B8FD80A3D3E9FA
:104A1000002302F031FF03F0BFF8206130688349C2
:104A200003F018FA02F0AAFD79A3D3E9002302F0FB
:104A300023FF03F0B1F86061384602F09FFD76A3D2
:104A4000D3E9002303F06AF8E0B1404602F096FD96
:104A500071A3D3E9002303F061F898B1484602F04E
:104A60008DFD6DA3D3E9002303F058F850B1734BCB
:104A70001A78597842EA0122987842EA0040FFF712
:104A800065FC09E06D4B1A78597842EA0122987862
:104A900042EA0040FFF776FC614BB3F8603003F068
:104AA00008039BB2002B52D05D4AD168644B196059
:104AB0001169596052699A600024624F624E1DE08C
:104AC00057484FEAC40EC4EB0E02D20083180121EE
:104AD00083F8891083F88A1083F888101D675F6750
:104AE000C3F88460DD67C3F88050C4EB0E03DB00BD
:104AF0001844643000F0CAFE0134E4B2022CDFD95D
:104B00000024474F0126DFF840811EE0E000031B30
:104B1000DB003B4483F8316183F8326183F8306114
:104B20004A49C3F818114A49C3F81C11C3F82C812B
:104B3000C3F82451C3F82851001BC000384400F5C5
:104B4000867000F0A3FE0134E4B2022CDED93C4EA4
:104B5000334CE068316803F073F80746E060206981
:104B6000716803F06DF820616069B16803F068F85E
:104B70006061384B1B78002B41D1384604F00CF8AB
:104B8000354903F00FFB30B1206904F005F83249D4
:104B900003F008FB10B90124284E2EE0204B586981
:104BA00003F0FAFF2C4903F0FDFA90B9F3E704EBA8
:104BB0004402B318B25C597842EA01229B7842EA77
:104BC000034307F07F401843FFF7C0FB0134E4B212
:104BD00002E00124194E0027042CE8D90FE004EB71
:104BE0004402B318B25C597842EA0122987842EA4A
:104BF0000040FFF7C7FB0134E4B2042CEFD9174B98
:104C00001B78032B00F2D280DFE803F073492CA558
:104C1000DB19A6B6D42109409A9999999999E93F47
:104C200088770010000020C20000204200003443BA
:104C3000000034C3D8750010646F0010103B0010E2
:104C4000486F0010000080BF0AD7A33B00007A43E2
:104C500000007AC3D068001000004040D43A001031
:104C6000C4750010974BA3F16404184653F84C1C0C
:104C700053F8642C002300F00FFEA06204F19C00A6
:104C8000E1696268002300F007FEE06204F1D400ED
:104C9000216AA268002300F0FFFD206386E08A48B5
:104CA000A0F58674A169E268002300F0F5FD606359
:104CB00004F5A270E1692269002300F0EDFDA06314
:104CC00004F16400616B2268002300F0E5FDA0623E
:104CD00004F19C00A16B6268002300F0DDFDE0623E
:104CE00004F1D400216AA268002300F0D5FD2063FE
:104CF0005CE07548A0F58674A169E268002300F0C5
:104D0000CBFD606304F5A270E1692269002300F025
:104D1000C3FDA06304F5BE70216A6269002300F040
:104D2000BBFDE06304F16400616B2268002300F0C6
:104D3000B3FDA06204F19C00A16B6268002300F047
:104D4000ABFDE06204F1D400E16BA268002300F047
:104D5000A3FD20632AE05C48A0F58674A169E2689F
:104D6000002300F099FD606304F5A270E1692269F7
:104D7000002300F091FDA06304F5BE70216A626912
:104D8000002300F089FDE06304F16400616B226898
:104D9000002300F081FDA06204F19C00A16B626819
:104DA000002300F079FDE06200232363474CD4F830
:104DB0002880474BC3F80080E76A5F60266B06F1E6
:104DC00000469E60606AD860424903F043F881461D
:104DD0004046414903F03EF880464846414602F0CD
:104DE0002FFF824638463C4903F034F807465046C8
:104DF000394602F025FF83463046384903F02AF849
:104E000006465846314602F01BFF03F0E9F91FFA47
:104E100080FBA4F840B05046394602F013FF01462B
:104E2000304602F00FFF03F0DBF9A4F842004846D9
:104E3000414602F007FF80463846414602F002FF35
:104E4000314602F0FDFE03F0CBF9A4F844004046E1
:104E5000394602F0F5FE0146304602F0F3FE03F05B
:104E6000BFF9A4F846001E4B1B789BB91D4C204689
:104E70000021FDF7DFFAA01F0021FDF7DBFA093C56
:104E800020460021FDF7D6FA04F10C000021FDF7C1
:104E9000D1FA55E4134E30465946FDF7CBFA0B4C88
:104EA000B01FB4F84210FDF7C5FA093E3046B4F819
:104EB0004410FDF7BFFA06F10C00B4F84610FDF7F8
:104EC000B9FA3DE4EC770010947800108877001070
:104ED000C068001000002F440000484300009643C3
:104EE000D0680010053B001008B500200C4B18607E
:104EF0000421012200F0CEFF58B10020102100F063
:104F0000F5FF084B186820B10021054A0B46FCF755
:104F1000E3FB034B1B680BB1FBF77AF908BD00BF3D
:104F2000B8680010746F001038B52B4C01250CE0E8
:104F300005EB4502A318A25C597842EA0122987851
:104F400042EA0040FFF702FA0135042DF0DD32207D
:104F5000FDF71CF801250CE005EB4502A318A25C47
:104F6000597842EA0122987842EA0040FFF70AFAAB
:104F70000135042DF0DD3220FDF708F801250CE0A5
:104F800005EB4502A318A25C597842EA0122987801
:104F900042EA0040FFF7DAF90135042DF0DD322056
:104FA000FCF7F4FF01250CE005EB4502A318A25C19
:104FB000597842EA0122987842EA0040FFF7E2F984
:104FC0000135042DF0DD3220FCF7E0FF4FF448708E
:104FD000FCF7DCFFAAE700BF103B001000B583B070
:104FE000074B18880749FBF753FF074B0093002036
:104FF000BB210246702300F0A7FB03B05DF804FB61
:10500000446F0010BCA800001877001038B50546A2
:10501000084B18880849FBF73BFF084C20462946F7
:10502000702203F011FC204600F06AFB204600F0DD
:10503000CFFA38BD446F0010D4A8000018770010D4
:1050400070B52B4A2B4B9A60012000210322FCF7FC
:1050500043FA294B186020B100210A460B46FCF7A1
:1050600089FA254B1B6803B9FEE700202349FDF7A9
:105070007BFC0020FDF778FB2148FBF703FF214B69
:1050800018801D4D1C46204E286800214FF4FA72EE
:105090000B46FCF779FB01281FD120883146FBF72E
:1050A000F7FE144BDB7843B1012BEDD11748114BC0
:1050B00099680A2203F0C8FBE6E70E4B986803786C
:1050C000522B02D0572B04D0DEE70130FFF786FFCA
:1050D000DAE70130FFF79AFFD6E720880C49FBF7A3
:1050E000D7FE0A4800210A2203F024FCCCE700BFC7
:1050F000D4680010D8690010E47500101951000040
:105100000CA90000E075001018A90000E07700105D
:1051100030A9000000BF70472DE9F84307460D464F
:105120000024154B1C60154EDFF8549098461AE089
:105130003046395D00F044FB032808D0042802D033
:1051400001280FD10BE00020FFF7E4FF0AE0D9F8B7
:105150000000002142460B46FCF7BEFA02E00120A7
:10516000FFF7D8FF0134AC42E2D3034B1B680BB10D
:10517000FBF74EF8BDE8F883D4690010D869001039
:10518000E475001070B50025294C2E460CE005EBA7
:105190004502A318A25C597842EA0122987842EAB3
:1051A0000040FFF7D3F80135062DF0DD3220FCF783
:1051B000EDFE35460CE005EB4502A318A25C5978DC
:1051C00042EA0122987842EA0040FFF7DBF8013515
:1051D000062DF0DD3220FCF7D9FE35460CE005EB5C
:1051E0004502A318A25C597842EA0122987842EA63
:1051F0000040FFF7ABF80135062DF0DD3220FCF75B
:10520000C5FE35460CE005EB4502A318A25C5978B3
:1052100042EA0122987842EA0040FFF7B3F80135EC
:10522000062DF0DD4FF4FA70FCF7B0FE3546BBE713
:10523000103B0010F0B583B0FDF7E0F8714C20464C
:10524000FDF7E4F8A01FFDF7E1F8093C2046FDF763
:10525000DDF804F10C00FDF7D9F800246A4F16E0E0
:1052600004EB4406BD19BB5D6A7843EA0223A878C3
:1052700043EA0040FFF75CF8BB5D6A7843EA02232B
:10528000A87843EA0040FFF761F80134E4B2062C45
:10529000E6D90123009300204FF461410822034620
:1052A000FDF788FA08B1FFF76DFF0020FDF736FA29
:1052B000564800F087F95648042100F055F9554B3F
:1052C00018885549FBF7E4FDFDF7CAF8012805D019
:1052D0005248012100F048F9FFF754FF50480221DD
:1052E00000F042F94B4B18884E49FBF7D1FD4E4870
:1052F00000F0CEF9012801D0FFF744FF4A4800F042
:10530000FFF9012801D0FFF73DFF4548022100F0D9
:105310002BF9404B18884549FBF7BAFD424800F08D
:1053200057F9012805D03D48012100F01DF9FFF78C
:1053300029FF3B48022100F017F9364B18883C49F9
:10534000FBF7A6FD0020FEF769F900283DD134489F
:10535000022100F009F97820FEF7E6F87820FDF741
:105360008BFEC820FEF790F8FEF76AFB4FF4FA6058
:10537000FDF75CFD0220FDF7C5FD9620FDF70CFE54
:105380004FF4B870FEF794FDC820FEF765FB0120CE
:10539000FEF724FD0120FEF7EDFA00201021024661
:1053A00000F03CFD00201021012200F057FD0020FC
:1053B000102100F09BFD1F4B302283F815234FF482
:1053C00000121A600024104D13E01448012100F06F
:1053D000CBF8FFF7D7FE04EB4402AB18AA5C597870
:1053E00042EA0122987842EA0040FEF7CBFF0134FE
:1053F000E4B2062CEFD9074B18880F49FBF748FD9C
:1054000003B0F0BD053B0010103B00104CA900009C
:1054100058A90000446F001074A9000094A900006E
:10542000B4A80000A0A9000018770010C0A90000CF
:10543000E4A9000000E100E000AA000030B585B05A
:10544000FFF7F8FEFEF7DAFF1A4B18881A49FBF748
:105450001FFD1A48002100F087F802230093184B23
:105460000193002402940394164817494FF4FA72EA
:105470002346FCF717FB01250095144B019302947A
:105480000394134813494FF496721423FCF70AFB54
:105490000095114D0195029403941048104964221F
:1054A0002346FCF7FFFA2868FCF71AFEFFF73CF9E1
:1054B00005B030BD446F001024AA000048AA0000C7
:1054C000EC690010415000007CAA0000E86900105F
:1054D0003555000084AA0000E8750010294F00002F
:1054E00088AA000000B585B0FBF7A4FC0B48FBF7C9
:1054F000C9FC0B4B18800B49FBF7CAFC0323009334
:105500000023019302930393074808494FF47A72EA
:10551000FCF7C8FAFCF7C2FBFEE700BF90AA000048
:10552000446F001098AA00003D540000A8AA000093
:10553000FEE700BFF0B585B00746FCF7DDFB039042
:10554000084C0026BB25FCF7D7FBA064009430462E
:10555000294603224C2300F0F7F803A83946FCF74C
:10556000D1FCF0E788770010F0B583B00546134B07
:1055700053F82160304603F027FA0246104C2046CB
:10558000314603F061F9304603F01EFA064607196A
:10559000284603F019FA02463846294603F054F922
:1055A000284603F011FA331800940020BB21022290
:1055B000DBB200F0C9F803B0F0BD00BFB4AA000030
:1055C000EC75001008B50021FFF7CEFF08BD00BF45
:1055D00010B50446A020214600227023FEF752FE9B
:1055E000012851D12268294B5A6662689A66A268DE
:1055F000DA66E2689A672269C3F89C206269C3F898
:10560000A020A269C3F8A420E269C3F8B020226AEE
:10561000C3F8D420626AC3F8D820A26AC3F8DC2099
:10562000E26AC3F8E820226BC3F80C21626BC3F86E
:105630001021A26BC3F81421E26BC3F82021226C65
:10564000C3F84421626CC3F84821A26CC3F84C2112
:10565000E26CC3F85821226DC3F87C21626DC3F857
:105660008021A26DC3F88421E26DC3F89021226EDF
:10567000C3F8B421626EC3F8B821A26EC3F8BC218E
:10568000E26EC3F8C82110BD002010BD887700105D
:1056900070B5014614480860144C4C6000238B60C0
:1056A000134ACA6008614C618B61CA614FF07E5633
:1056B0000E63104D4D638B634FF08140C8630E64E1
:1056C0004D648B64C8640C4D0D624C628B62CA627F
:1056D0000A650A4A4A658B65C865A02000227023C6
:1056E000FEF7E0FD70BD00BF0AD7233C000020415B
:1056F0000000A04000004842CDCC4C3D0000A0413D
:1057000008B50146A02000227023FEF7CBFD08BD9E
:10571000552070472DE9F0410546884617461E463C
:10572000069CAA2323706070FFF7F2FFC0B2A0703E
:1057300084F80380FAB22271A660563D28440244E0
:105740002273BDE8F08100BF2DE9F04186B002AFC1
:1057500080461D463B1C0093084611462A46BB6AFC
:10576000FFF7D8FFEE1D05F10E0303F4FC73ADEB5C
:10577000030D02ACEA238DF808303B788DF8093030
:105780007B788DF80A30BB788DF80B30FB788DF87C
:105790000C303B798DF80D300DF10E00B9682A46BA
:1057A00003F052F806353B7B6355404621463246AE
:1057B000FDF70EF900201037BD46BDE8F08100BFAF
:1057C00030B48268002A55D02E4B1B78072B53D853
:1057D000DFE803F0040C12181E232F3C00222A4B92
:1057E0001A600122274B1A70052048E0017002223E
:1057F000244B1A70052042E041700322214B1A709D
:1058000005203CE0817004221E4B1A70052036E012
:10581000C17005201B4B187031E0017121B10622C7
:10582000184B1A7005202AE00722164B1A70052023
:1058300025E0154C2368D15401332360027993424B
:105840001CD107220F4B1A70052018E00578437809
:10585000847802792B4423441344DBB28B4204D175
:105860000022084B1A70032009E00022054B1A7031
:10587000042004E0012002E0012000E0052030BC0B
:10588000704700BFF4690010F06900100023C36284
:1058900003638362436370472DE9F04F85B004468C
:1058A0000D4616469946406801F068FE03F070F90F
:1058B0006DA3D3E9002302F027F908B16C4B6360B4
:1058C0002768D4F820A03846514602F0C3FA616830
:1058D00002F074FB0290D4F80880D4F814B050465B
:1058E000594602F0B7FA0146404602F0ABF982464B
:1058F0004046514602F062FB01903846414602F0B4
:10590000A9FA0146584602F0A5FA514602F056FBA4
:1059100003903846E16902F09DFA0146404602F0E4
:1059200099FA0146584602F095FA514602F046FBB4
:105930008046A069294602F08DFA314602F080F9CE
:10594000394602F087FA0746206B019902F082FA85
:1059500082463046A16A02F073F9039902F07AFA9E
:105960000146504602F06CF982462846616B02F00F
:1059700067F9414602F06EFA0146504602F062F9BC
:105980008046D4F82CB094F82430012B0AD013B1FF
:10599000022B20D02DE094F82630012B2CD1E6628A
:1059A000AA462AE03846594602F04CF9414602F030
:1059B00049F90190D4F80CA05046019902F0E8FB97
:1059C000D8B9D4F810A05046019902F0FFFBA0B955
:1059D000DDF804A011E02846314602F031F900213B
:1059E00002F0EAFB10B1D4F80CA006E0D4F810A045
:1059F00003E0DFF880A000E0AA46B9F1000F05D06F
:105A0000C9F80070C9F804B0C9F80880E76A2846E8
:105A1000314602F015F9029902F01CFA01463846A7
:105A200002F010F90746A28C40F201139A4211D1FC
:105A3000D4F80C904846394602F0B4FB38B9D4F893
:105A400010904846394602F0B7FB10B902E04F46C5
:105A500000E04F46E762C4F83080A66265635046B6
:105A600005B0BDE8F08F00BF48AFBC9AF2D77A3ED0
:105A700095BFD6330000C07FF0B583B004460F4613
:105A800001258DF800500190064E304600216A46EF
:105A900000F054FF3046294600F0D8FFFC6003B008
:105AA000F0BD00BF0040094010B41F2802D9A0F18A
:105AB000200200E002461F2810D8124BD3F8A8415C
:105AC0000320904024EA0000C3F8A801D3F8A801FD
:105AD00001FA02F20243C3F8A8210FE0094BD3F800
